{
  "contractName": "Greeter",
  "abi": [
    {
      "inputs": [],
      "stateMutability": "nonpayable",
      "type": "constructor"
    },
    {
      "anonymous": false,
      "inputs": [
        {
          "indexed": true,
          "internalType": "address",
          "name": "previousOwner",
          "type": "address"
        },
        {
          "indexed": true,
          "internalType": "address",
          "name": "newOwner",
          "type": "address"
        }
      ],
      "name": "OwnershipTransferred",
      "type": "event"
    },
    {
      "inputs": [],
      "name": "owner",
      "outputs": [
        {
          "internalType": "address",
          "name": "",
          "type": "address"
        }
      ],
      "stateMutability": "view",
      "type": "function",
      "constant": true
    },
    {
      "inputs": [],
      "name": "renounceOwnership",
      "outputs": [],
      "stateMutability": "nonpayable",
      "type": "function"
    },
    {
      "inputs": [
        {
          "internalType": "address",
          "name": "newOwner",
          "type": "address"
        }
      ],
      "name": "transferOwnership",
      "outputs": [],
      "stateMutability": "nonpayable",
      "type": "function"
    },
    {
      "inputs": [],
      "name": "greet",
      "outputs": [
        {
          "internalType": "string",
          "name": "",
          "type": "string"
        }
      ],
      "stateMutability": "view",
      "type": "function",
      "constant": true
    },
    {
      "inputs": [
        {
          "internalType": "string",
          "name": "greeting",
          "type": "string"
        }
      ],
      "name": "setGreeting",
      "outputs": [],
      "stateMutability": "nonpayable",
      "type": "function"
    }
  ],
  "bytecode": "0x60806040526040518060400160405280600c81526020017f48656c6c6f20576f726c64210000000000000000000000000000000000000000815250600190816200004a919062000406565b503480156200005857600080fd5b50620000796200006d620000c060201b60201c565b620000c860201b60201c565b33600260006101000a81548173ffffffffffffffffffffffffffffffffffffffff021916908373ffffffffffffffffffffffffffffffffffffffff160217905550620004ed565b600033905090565b60008060009054906101000a900473ffffffffffffffffffffffffffffffffffffffff169050816000806101000a81548173ffffffffffffffffffffffffffffffffffffffff021916908373ffffffffffffffffffffffffffffffffffffffff1602179055508173ffffffffffffffffffffffffffffffffffffffff168173ffffffffffffffffffffffffffffffffffffffff167f8be0079c531659141344cd1fd0a4f28419497f9722a3daafe3b4186f6b6457e060405160405180910390a35050565b600081519050919050565b7f4e487b7100000000000000000000000000000000000000000000000000000000600052604160045260246000fd5b7f4e487b7100000000000000000000000000000000000000000000000000000000600052602260045260246000fd5b600060028204905060018216806200020e57607f821691505b602082108103620002245762000223620001c6565b5b50919050565b60008190508160005260206000209050919050565b60006020601f8301049050919050565b600082821b905092915050565b6000600883026200028e7fffffffffffffffffffffffffffffffffffffffffffffffffffffffffffffffff826200024f565b6200029a86836200024f565b95508019841693508086168417925050509392505050565b6000819050919050565b6000819050919050565b6000620002e7620002e1620002db84620002b2565b620002bc565b620002b2565b9050919050565b6000819050919050565b6200030383620002c6565b6200031b6200031282620002ee565b8484546200025c565b825550505050565b600090565b6200033262000323565b6200033f818484620002f8565b505050565b5b8181101562000367576200035b60008262000328565b60018101905062000345565b5050565b601f821115620003b65762000380816200022a565b6200038b846200023f565b810160208510156200039b578190505b620003b3620003aa856200023f565b83018262000344565b50505b505050565b600082821c905092915050565b6000620003db60001984600802620003bb565b1980831691505092915050565b6000620003f68383620003c8565b9150826002028217905092915050565b62000411826200018c565b67ffffffffffffffff8111156200042d576200042c62000197565b5b620004398254620001f5565b620004468282856200036b565b600060209050601f8311600181146200047e576000841562000469578287015190505b620004758582620003e8565b865550620004e5565b601f1984166200048e866200022a565b60005b82811015620004b85784890151825560018201915060208501945060208101905062000491565b86831015620004d85784890151620004d4601f891682620003c8565b8355505b6001600288020188555050505b505050505050565b610a0b80620004fd6000396000f3fe608060405234801561001057600080fd5b50600436106100575760003560e01c8063715018a61461005c5780638da5cb5b14610066578063a413686214610084578063cfae3217146100a0578063f2fde38b146100be575b600080fd5b6100646100da565b005b61006e6100ee565b60405161007b91906103d5565b60405180910390f35b61009e6004803603810190610099919061045f565b610117565b005b6100a8610135565b6040516100b5919061053c565b60405180910390f35b6100d860048036038101906100d3919061058a565b6101c7565b005b6100e261024a565b6100ec60006102c8565b565b60008060009054906101000a900473ffffffffffffffffffffffffffffffffffffffff16905090565b61011f61024a565b818160019182610130929190610807565b505050565b60606001805461014490610620565b80601f016020809104026020016040519081016040528092919081815260200182805461017090610620565b80156101bd5780601f10610192576101008083540402835291602001916101bd565b820191906000526020600020905b8154815290600101906020018083116101a057829003601f168201915b5050505050905090565b6101cf61024a565b600073ffffffffffffffffffffffffffffffffffffffff168173ffffffffffffffffffffffffffffffffffffffff160361023e576040517f08c379a000000000000000000000000000000000000000000000000000000000815260040161023590610949565b60405180910390fd5b610247816102c8565b50565b61025261038c565b73ffffffffffffffffffffffffffffffffffffffff166102706100ee565b73ffffffffffffffffffffffffffffffffffffffff16146102c6576040517f08c379a00000000000000000000000000000000000000000000000000000000081526004016102bd906109b5565b60405180910390fd5b565b60008060009054906101000a900473ffffffffffffffffffffffffffffffffffffffff169050816000806101000a81548173ffffffffffffffffffffffffffffffffffffffff021916908373ffffffffffffffffffffffffffffffffffffffff1602179055508173ffffffffffffffffffffffffffffffffffffffff168173ffffffffffffffffffffffffffffffffffffffff167f8be0079c531659141344cd1fd0a4f28419497f9722a3daafe3b4186f6b6457e060405160405180910390a35050565b600033905090565b600073ffffffffffffffffffffffffffffffffffffffff82169050919050565b60006103bf82610394565b9050919050565b6103cf816103b4565b82525050565b60006020820190506103ea60008301846103c6565b92915050565b600080fd5b600080fd5b600080fd5b600080fd5b600080fd5b60008083601f84011261041f5761041e6103fa565b5b8235905067ffffffffffffffff81111561043c5761043b6103ff565b5b60208301915083600182028301111561045857610457610404565b5b9250929050565b60008060208385031215610476576104756103f0565b5b600083013567ffffffffffffffff811115610494576104936103f5565b5b6104a085828601610409565b92509250509250929050565b600081519050919050565b600082825260208201905092915050565b60005b838110156104e65780820151818401526020810190506104cb565b60008484015250505050565b6000601f19601f8301169050919050565b600061050e826104ac565b61051881856104b7565b93506105288185602086016104c8565b610531816104f2565b840191505092915050565b600060208201905081810360008301526105568184610503565b905092915050565b610567816103b4565b811461057257600080fd5b50565b6000813590506105848161055e565b92915050565b6000602082840312156105a05761059f6103f0565b5b60006105ae84828501610575565b91505092915050565b600082905092915050565b7f4e487b7100000000000000000000000000000000000000000000000000000000600052604160045260246000fd5b7f4e487b7100000000000000000000000000000000000000000000000000000000600052602260045260246000fd5b6000600282049050600182168061063857607f821691505b60208210810361064b5761064a6105f1565b5b50919050565b60008190508160005260206000209050919050565b60006020601f8301049050919050565b600082821b905092915050565b6000600883026106b37fffffffffffffffffffffffffffffffffffffffffffffffffffffffffffffffff82610676565b6106bd8683610676565b95508019841693508086168417925050509392505050565b6000819050919050565b6000819050919050565b60006107046106ff6106fa846106d5565b6106df565b6106d5565b9050919050565b6000819050919050565b61071e836106e9565b61073261072a8261070b565b848454610683565b825550505050565b600090565b61074761073a565b610752818484610715565b505050565b5b818110156107765761076b60008261073f565b600181019050610758565b5050565b601f8211156107bb5761078c81610651565b61079584610666565b810160208510156107a4578190505b6107b86107b085610666565b830182610757565b50505b505050565b600082821c905092915050565b60006107de600019846008026107c0565b1980831691505092915050565b60006107f783836107cd565b9150826002028217905092915050565b61081183836105b7565b67ffffffffffffffff81111561082a576108296105c2565b5b6108348254610620565b61083f82828561077a565b6000601f83116001811461086e576000841561085c578287013590505b61086685826107eb565b8655506108ce565b601f19841661087c86610651565b60005b828110156108a45784890135825560018201915060208501945060208101905061087f565b868310156108c157848901356108bd601f8916826107cd565b8355505b6001600288020188555050505b50505050505050565b7f4f776e61626c653a206e6577206f776e657220697320746865207a65726f206160008201527f6464726573730000000000000000000000000000000000000000000000000000602082015250565b60006109336026836104b7565b915061093e826108d7565b604082019050919050565b6000602082019050818103600083015261096281610926565b9050919050565b7f4f776e61626c653a2063616c6c6572206973206e6f7420746865206f776e6572600082015250565b600061099f6020836104b7565b91506109aa82610969565b602082019050919050565b600060208201905081810360008301526109ce81610992565b905091905056fea2646970667358221220b055737f119f303a52563638efd73ef88f7d4b37e6016916c8af444ebe11867064736f6c63430008110033",
  "immutableReferences": {},
  "source": "pragma solidity ^0.8.17;\n\nimport \"@openzeppelin/contracts/access/Ownable.sol\";\n\ncontract Greeter is Ownable {\n\n    string private __greeting = \"Hello World!\";\n    address private _owner;\n\n    constructor() {\n        _owner = msg.sender;\n    }\n//\n//    modifier onlyOwner(){\n//        require(\n//            msg.sender == _owner,\n//            \"Ownable: caller is not the owner\"\n//        );\n//        _;\n//    }\n\n    function greet() external view returns (string memory){\n        return __greeting;\n    }\n\n    function setGreeting(string calldata greeting) onlyOwner public {\n        __greeting = greeting;\n    }\n//\n//    function owner() public view returns (address){\n//        return _owner;\n//    }\n\n}\n",
  "sourcePath": "/media/zxsofficials/work/oReallyHandsOnSmartContract/greeter/contracts/Greeter.sol",
  "compiler": {
    "name": "solc",
    "version": "0.8.17+commit.8df45f5f.Emscripten.clang"
  },
  "schemaVersion": "3.4.11",
  "updatedAt": "2023-01-11T14:33:42.577Z",
  "networkType": "ethereum",
  "devdoc": {
    "kind": "dev",
    "methods": {
      "owner()": {
        "details": "Returns the address of the current owner."
      },
      "renounceOwnership()": {
        "details": "Leaves the contract without owner. It will not be possible to call `onlyOwner` functions anymore. Can only be called by the current owner. NOTE: Renouncing ownership will leave the contract without an owner, thereby removing any functionality that is only available to the owner."
      },
      "transferOwnership(address)": {
        "details": "Transfers ownership of the contract to a new account (`newOwner`). Can only be called by the current owner."
      }
    },
    "version": 1
  },
  "userdoc": {
    "kind": "user",
    "methods": {},
    "version": 1
  }
}